:020000040800F2
:10000000000002201D0700086D0700086D070008AA
:100010006D0700086D0700086D070008000000006C
:100020000000000000000000000000006D07000854
:100030006D070008000000006D0700082508000893
:100040006D0700086D0700086D0700086D070008C0
:100050006D0700086D0700086D0700086D070008B0
:100060006D0700086D0700086D0700086D070008A0
:100070006D0700086D0700086D0700086D07000890
:100080006D0700086D0700086D0700086D07000880
:100090006D0700086D0700086D0700086D07000870
:1000A0006D0700086D0700086D0700086D07000860
:1000B0006D0700086D0700086D0700086D07000850
:1000C0006D0700086D0700086D0700086D07000840
:1000D0006D0700086D0700086D0700086D07000830
:1000E0006D0700086D0700086D0700086D07000820
:1000F0006D0700086D0700086D0700086D07000810
:100100006D0700086D0700086D0700086D070008FF
:100110006D0700086D0700086D0700086D070008EF
:100120006D0700086D0700086D0700086D070008DF
:100130006D0700086D0700086D0700086D070008CF
:100140006D0700086D0700086D0700086D070008BF
:100150006D0700086D0700086D0700086D070008AF
:100160006D0700086D0700086D0700086D0700089F
:100170006D0700086D0700086D0700086D0700088F
:080180006D0700086D0700087F
:1001C00010B5054C237833B9044B13B10448AFF391
:1001D00000800123237010BDB00C0020000000003F
:1001E000B46A000808B5034B1BB103490348AFF3D9
:1001F000008008BD00000000B40C0020B46A0008B4
:10020000844641EA000313F003036DD1403A41D321
:1002100051F8043B40F8043B51F8043B40F8043BE0
:1002200051F8043B40F8043B51F8043B40F8043BD0
:1002300051F8043B40F8043B51F8043B40F8043BC0
:1002400051F8043B40F8043B51F8043B40F8043BB0
:1002500051F8043B40F8043B51F8043B40F8043BA0
:1002600051F8043B40F8043B51F8043B40F8043B90
:1002700051F8043B40F8043B51F8043B40F8043B80
:1002800051F8043B40F8043B51F8043B40F8043B70
:10029000403ABDD2303211D351F8043B40F8043B10
:1002A00051F8043B40F8043B51F8043B40F8043B50
:1002B00051F8043B40F8043B103AEDD20C3205D320
:1002C00051F8043B40F8043B043AF9D2043208D018
:1002D000D2071CBF11F8013B00F8013B01D30B888A
:1002E00003806046704700BF082A13D38B078DD068
:1002F00010F003038AD0C3F10403D21ADB071CBF3A
:1003000011F8013B00F8013B80D331F8023B20F8A3
:10031000023B7BE7043AD9D3013A11F8013B00F8DC
:10032000013BF9D20B7803704B7843708B78837064
:100330006046704700000000000000000000000060
:10034000A2EB0300704700BF02780B78012A28BF98
:100350009A42F5D16DE9044540EA0104CDE902670E
:100360006FF0000C4FEA447212B380EA010414F0FB
:10037000070F6AD100F0070420F0070004F003051E
:1003800021F007014FEAC505F0E8042314F0040F3B
:10039000F1E804670CFA05F462EA040266EA04066E
:1003A0000AD063EA0403624667EA0407664603E08C
:1003B000F0E80423F1E8046782FA4CF582EA0604C7
:1003C000A4FA8CF46CBB83FA4CF583EA0705A5FA12
:1003D0008CF595B950E9022351E9026782FA4CF590
:1003E00082EA0604A4FA8CF483FA4CF583EA070542
:1003F000A5FA8CF52543DBD09CB92DBAB5FA85F466
:1004000024F0070427FA04F1DDE9026723FA04F374
:1004100003F0FF0001F0FF01FDE80445A0EB01003F
:10042000704724BAB4FA84F424F0070426FA04F1DD
:10043000DDE9026722FA04F202F0FF0001F0FF0199
:10044000FDE80445A0EB0100704714F0030F3CD118
:1004500010F0030428D150F8082B51F8083B82FA19
:100460004CF582EA0305A5FA8CF55DB950F8042C29
:1004700051F8043C82FA4CF582EA0305A5FA8CF5A2
:10048000002DE8D02DBAB5FA85F424F0070423FA3C
:1004900004F122FA04F202F0FF0001F0FF01FDE88E
:1004A0000445A0EB010070474FEAC40420F00300AC
:1004B00050F8082B21F0030151F8083B0CFA04F422
:1004C00062EA040263EA0403C9E710F003041AD0E5
:1004D000A1EB040120F00300E40750F8042B06D040
:1004E0000FD28B785FFAA2F4E41A06D12BB1CB7845
:1004F0005FFAB2F4E41A00D11BB920465DF8104B44
:10050000704701F1040150F8042BCC0721F00301DE
:1005100051F8043B48D824D222F07F4482FA4CF5AB
:1005200094EA1325A5FA8CF50AD165B951F8043B74
:1005300084EA0204B4EB036F0ED150F8042BEBE70E
:100540004FEA132355E035F07F454DD10878FDE89B
:100550000445C0F1000070474FEA126203F0FF0348
:1005600047E002EA1C4482FA4CF594EA1345A5FAE6
:100570008CF50AD165B951F8043B84EA0204B4EB66
:10058000034F0CD150F8042BEBE74FEA134330E054
:1005900015EA1C4528D10B884FEA124229E04FEAA0
:1005A000124203EA1C4324E002F0FF0482FA4CF5F5
:1005B00094EA1365A5FA8CF50AD165B951F8043BA4
:1005C00084EA0204B4EB032F09D150F8042BEBE7C3
:1005D0004FEA13630DE015F0FF0F05D10B684FEAEA
:1005E000122223F07F4304E04FF00000FDE80445B1
:1005F000704712BA1BBA82FA4CF482EA0304A4FAD6
:100600008CF5B5FA85F402FA04F203FA04F34FEA22
:100610001260FDE80445A0EB136070470000000085
:1006200000000000000000000000000000000000CA
:1006300000000000000000000000000000000000BA
:1006400090F800F06DE9024520F007016FF0000C12
:1006500010F0070491F820F040F049804FF00004BA
:100660006FF00700D1E9002391F840F000F1080095
:1006700082FA4CF2A4FA8CF283FA4CF3A2FA8CF3CD
:100680004BBBD1E9022382FA4CF200F10800A4FA34
:100690008CF283FA4CF3A2FA8CF3E3B9D1E9042388
:1006A00082FA4CF200F10800A4FA8CF283FA4CF3BF
:1006B000A2FA8CF37BB9D1E9062301F1200182FA79
:1006C0004CF200F10800A4FA8CF283FA4CF3A2FA7F
:1006D0008CF3002BC6D0002A04BF04301A4612BA8D
:1006E000B2FA82F2FDE8024500EBD2007047D1E990
:1006F000002304F00305C4F100004FEAC50514F01F
:10070000040F91F840F00CFA05F562EA05021CBFEF
:1007100063EA050362464FF00004A9E7DFF834D02E
:10072000002103E00C4B5B58435004310B480C4B49
:1007300042189A42F6D30B4A02E0002342F8043BE7
:10074000094B9A42F9D300F013F804F0F9FF04F0D2
:1007500065FF7047000002205CA300080000002035
:10076000B00C0020B00C002038A20120FEE70000F1
:10077000264AD2F8883043F47003C2F88830244BFC
:100780001A68002142F001021A6099601A6822F08A
:10079000847222F480321A601E4A5A601A6822F467
:1007A00080221A60D9601A6C1B4942F080521A6488
:1007B0000A6842F440420A609A689A609A6842F471
:1007C00000429A609A6842F4A0529A60134A5A60B2
:1007D0001A6842F080721A601A689201FCD5104AB9
:1007E00040F2056111609A6822F003029A609A68EB
:1007F00042F002029A60064A936803F00C03082B49
:10080000FAD1024B4FF000629A60704700ED00E0B1
:1008100000380240103000240070004010540007DF
:10082000003C0240144A1368013370B51360134B47
:100830001A6812B11A68013A1A60AFF30080104EBC
:1008400000253378ECB2A34200D870BD06EB8404D7
:1008500063687BB11A7B6AB19A685AB1013A9A60AF
:1008600042B9D3E90420904763681A689A605A68CD
:1008700002B91A730135E4E7E80C0020EC0C002003
:10088000CC0C00200C4B0D491A684FF47A73B2FB64
:10089000F3F3013B4B600A4BF02083F82300002365
:1008A0008B6007230B60074BB2FBF3F2064B1A6019
:1008B000064B01221A7070470000002010E000E093
:1008C00000ED00E0C0CF6A007C110020E40C0020A5
:1008D000044B1A6B11B110431863704722EA0000F1
:1008E000FAE700BF003802402DE9F0430D6800220E
:1008F0000126032406FA02FE3EEA05033DD1570015
:10090000D0F800C004FA07F3DB430CEA030CC0F88C
:1009100000C091F804C0D0F800900CFA07F80CF170
:10092000FF3C48EA0908BCF1010FC0F8008017D865
:10093000D0F808C003EA0C0383604B79D0F808C0F4
:10094000BB4043EA0C038360436823EA0E03436021
:100950008B79D0F804C093409BB243EA0C03436008
:10096000C36804FA07FC23EA0C03C360CB79D0F810
:100970000CC0BB4043EA0C03C3600132102AB9D15A
:10098000BDE8F083038810B503F441524C880B880E
:1009900023438C882343CC8823430C8923434C89ED
:1009A00023438C892343CC89234313430380838BC4
:1009B00023F400631B041B0C83830B8A038210BD8A
:1009C0000023038043808380C3800381438183812C
:1009D000C381072303827047044B1A69002ABFBFF3
:1009E000034A5A6002F188325A607047003C024064
:1009F00023016745024A136943F0004313617047BE
:100A0000003C02400B4BDA68D1030DD4DA68D20601
:100A10000CD4DA6812F0EF0F0AD1DB6813F0020F82
:100A200014BF072008207047012070470520704739
:100A300006207047003C024007B508238DF80730B8
:100A4000FFF7E0FF8DF807009DF80730012BF7D086
:100A50009DF8070003B05DF804FB000070B5064682
:100A600059B301292BD002290CBF4FF400754FF464
:100A70004075FFF7E1FF08281ED1124C236923F4CB
:100A800040732361216929432161236923F0F8031D
:100A90002361206940F0020030432061236943F460
:100AA00080332361FFF7C8FF236923F0020323612A
:100AB000236923F0F803236170BD0D46D9E74FF495
:100AC0008075D6E7003C024070B505460E46FFF73C
:100AD000B3FF082813D10A4C236923F44073236120
:100AE000236943F400732361236943F00103236105
:100AF0002E60FFF7A1FF236923F00103236170BD7E
:100B0000003C024070B505460E46FFF795FF0828E9
:100B100013D10A4C236923F440732361236943F4FE
:100B200080732361236943F0010323612E80FFF763
:100B300083FF236923F00103236170BD003C024061
:100B400070B505460E46FFF777FF082811D1094C0E
:100B5000236923F44073236123692361236943F0EC
:100B6000010323612E70FFF767FF236923F0010360
:100B7000236170BD003C024003885B0608D50389F1
:100B80009B07FCD003891B06F9D40A44914200D18B
:100B9000704711F8013B838103899B07FCD00389CF
:100BA0001B06F9D48389F1E710B50488640609D5DA
:100BB0000489A407FCD004892406F9D40B4492B21A
:100BC000994200D110BD82810489A407FCD0048918
:100BD0002406F9D4848901F8014BF1E7704700003D
:100BE00007B5034658B903220521CDE90021024685
:100BF0000C48E02100F059FA03B05DF804FB01282D
:100C000008D103230522CDE9003200231A463821FA
:100C10000548EFE70328EFD105210448FFF7DEFF81
:100C2000EAE700BF0000024000040240003001403B
:100C300073B50446A0B903250526034602464FF4C2
:100C400080611648CDE9005600F02FFACDE9005634
:100C50001348234622460C2100F027FA02B070BD4B
:100C6000012809D103230521CDE9003100231A46CB
:100C70004FF460410948EFE7022808D10323052219
:100C8000CDE9003200231A460D210648E4E7032887
:100C9000E4D105210448FFF7A1FFDFE7000402408B
:100CA00000080240002002400038004007B503461B
:100CB00058B903220621CDE9002102460C4838210B
:100CC00000F0F3F903B05DF804FB012809D1032318
:100CD0000622CDE9003200231A464FF4E0510548C0
:100CE000EEE70328EED106210348FFF777FFE9E797
:100CF0000004024000080240003C004007B50346E3
:100D000058B903220521CDE90021024664210C488F
:100D100000F0CBF903B05DF804FB012808D10323F0
:100D20000522CDE9003200231A464FF4E041EEE7F8
:100D30000328EFD105210348FFF750FFEAE700BF82
:100D4000001002400034014037B5034658B9032271
:100D50000521CDE90021024610484FF4607100F0F2
:100D6000A4F903B030BD012811D1002303240525C7
:100D70001A464FF400610948CDE9004500F095F9A5
:100D80000023CDE900451A46C0210548E7E70328BE
:100D9000E7D105210348FFF721FFE2E700140240F5
:100DA000001C02400050014007B5034660B9032211
:100DB0000521CDE9002102464FF4E041064800F04C
:100DC00074F903B05DF804FB0328FAD10521034848
:100DD000FFF704FFF5E700BF001802400054014090
:100DE000F0B587B0044601A81F460E461546FFF72A
:100DF000E7FD424B9C4216D1414A536C43F4805369
:100E000053643046FFF7ECFE0023ADF808303D4B4D
:100E10009C4222D13A4A536C43F400135364304647
:100E2000FFF7C2FF16E0384B9C4208D1344A136CDE
:100E300043F4804313643046FFF7FAFEE4E7334B94
:100E40009C4230D12E4A136C43F400431364304665
:100E5000FFF72CFF0023ADF80830BDF83420ADF8C3
:100E60001220BDF83020ADF8062000234FF40072A8
:100E7000ADF81070ADF80430ADF80E205DBBADF8E4
:100E80000A50ADF80C50238823F040031B041B0CC0
:100E9000238001A92046FFF775FD238843F0400316
:100EA000238007B0F0BD1A4B9C4208D1144A536C02
:100EB00043F4005353643046FFF720FFCAE7154B55
:100EC0009C42A4D10E4A536C43F4801353643046C1
:100ED000FFF73AFFBEE7012D02D1ADF80A30D0E7A7
:100EE000022D04D1ADF80A50ADF80C30CBE7032D3C
:100EF000C9D10223ADF80A300123F5E700300140E3
:100F0000003802400054014000380040003C0040DE
:100F10000034014000500140184B984237B5044658
:100F20000D4613D14FF482730022CDE90032202305
:100F3000FFF756FF124B9C4216D14FF482730022EA
:100F4000CDE900322946202320460BE00D4B984284
:100F5000E8D00D4B984209D14FF482730022CDE9BD
:100F600000322023FFF73CFF03B030BD074B98420F
:100F7000F2D0074B9842EFD0DCE700BF00300140D1
:100F80000054014000380040003C00400034014063
:100F900000500140064A00F13F4000F57E00116B11
:100FA000C0F38F230120984008431063704700BFAF
:100FB000003802402DE9F04F85B000F13F459DF823
:100FC0003840029405F57E059DF83C40DFF8A4808A
:100FD000039402F1FF3E01930024C5F387254FF0EF
:100FE000030A5FFA8EFE41FA04F6F3073BD50123AC
:100FF00038F81560D0F80CC003FA04F949EA06067F
:1010000028F8156004FA03F60AFA06F7029BFF4374
:1010100003FA06FB07EA0C0C4CEA0B0CC0F80CC0F8
:10102000D0F800C002FA06FB0CEA070C4CEA0B0CE5
:10103000BEF1010FC0F800C015D8D0F804C0019B64
:101040002CEA090903FA04FC1FFA8CFC49EA0C0992
:10105000C0F80490D0F808C0039B07EA0C0703FA15
:1010600006F6374387600134102CBCD105B0BDE8CB
:10107000F08F00BFF00C00202DE9F0470546164622
:101080001F469DF820809DF824900C4659B1FFF72B
:1010900081FFCDE908893B46324621462846BDE816
:1010A000F047FFF787BFBDE8F0872DE9F047064618
:1010B000174698469DF820909DF824A00D4619B338
:1010C000FFF768FF00200F2145FA00F3DB070ED57C
:1010D000C20806EB820200F00704136AA40001FABA
:1010E00004FC23EA0C030AFA04F41C4314620130E2
:1010F0001028E9D1CDE908893B462946304602222D
:10110000BDE8F047FFF756BFBDE8F0870120704704
:10111000012070470120704701207047012070476F
:10112000012070470120704701207047012070475F
:10113000012070470120704701207047012070474F
:10114000012070470120704714235843024B1B585D
:1011500003B118470420704704000020044A1423F8
:1011600003FB0020436803B118470420704700BF09
:101170000400002030B40446084611464BB1064A2C
:10118000142505FB042424691CB11A46234630BCEF
:101190001847042030BC70470400002030B40446D7
:1011A000084611464BB1064A142505FB0424E468A1
:1011B0001CB11A46234630BC1847042030BC704787
:1011C0000400002010B40C460749142303FB001050
:1011D000836823B1204611465DF8044B184704206C
:1011E0005DF8044B704700BF0400002000487047C2
:1011F0000000FC427F2810B506D931B1FF2812D873
:1012000080380A4B33F8100010BD084A32F81140FC
:1012100084428BB203D001318029F7D10B4603F110
:101220008000C0B2F0E70020EEE700BF3A6B000894
:101230000649002331F8132022B1824203D1044A27
:1012400032F8130070470133F4E700BF3A6C00082E
:101250001A6E00080C4A138813F0400312D013468C
:101260001A899107FCD01A891206F9D480B29881A4
:10127000054B1A899107FCD01A891206F9D498896E
:10128000C0B27047184670470038004070B5104C27
:10129000C82305460E462360FF20FFF7DBFFFF282B
:1012A00003D120680028F7D170BDFE280DD1334648
:1012B000FF2229460748FFF777FCFF20FFF7CAFF08
:1012C000FF20FFF7C7FF0120EEE70020ECE700BF9B
:1012D000EC0C002000380040024B20221A83FF2033
:1012E000FFF7B8BF0004024010B5074C2060FF2094
:1012F000FFF7B0FFFF2802D02368002BF7D1A0F141
:10130000FF035842584110BDEC0C0020094B20222D
:1013100010B5FF205A83FFF79DFF4FF4FA70FFF7D7
:10132000E3FF044618B9FFF7D7FF204610BD01249C
:10133000FBE700BF00040240020638B504460D4634
:1013400007D500213720FFF7F7FF01282BD804F03D
:101350007F040C2C28D144F04000FFF77BFF280EBF
:10136000FFF778FFC5F30740FFF774FFC5F30720C9
:10137000FFF770FFE8B2FFF76DFFECB1082C14BF68
:1013800001208720FFF766FF0C2C02D1FF20FFF71A
:1013900061FF0A24FF20FFF75DFF030603D5013C30
:1013A00014F0FF04F6D138BDFFF796FFFFF7AEFF4C
:1013B0000028D0D1FF20F6E79520E3E738B50546B1
:1013C0004FF4FA700C46FFF78FFFC0B12046FFF7CD
:1013D00041FFFD2C14D04FF4007229460948FFF755
:1013E000CBFBFF20FFF736FFFF20FFF733FFFF2087
:1013F000FFF730FF00F01F00431F5842584138BD2F
:101400000120FCE70038004007B500230122CDE9A8
:10141000002320210248FFF72FFE03B05DF804FBF4
:101420000004024073B5FFF7EFFFFFF72BFA01212D
:101430004B48FFF771FD4B4B20221A834A4B1A6829
:101440000192EFF30582002A69D11A680199521AB4
:10145000092AFAD90A24FF20013CFFF7FBFE14F009
:10146000FF04F8D121462046FFF766FF0128064613
:1014700072D13E4D4FF47A734FF4D57108202B6032
:10148000FFF75AFF01284DD1FF20FFF7E3FE0DF8CB
:1014900004000134042CF7D19DF80230012B5BD1FC
:1014A0009DF80330AA2B57D12B6833B14FF0804100
:1014B000A920FFF741FF0028F6D12B68002B4BD065
:1014C00000213A20FFF738FF002845D10446FF20CD
:1014D000FFF7C0FE0DF804000134042CF7D19DF88D
:1014E000003013F0400F0CBF04240C24204B1C7060
:1014F000FFF7F2FE1F4B002C30D01A7802F0FE02EC
:101500001A701A7802F0FB021A70187802B070BDD7
:101510001168C90300D5013B002BF9D19AE70A23D2
:10152000154AF9E72146A920FFF706FF01288EBFDB
:1015300001240224A9262B682BB100213046FFF795
:10154000FBFE0028F7D12B6833B94FF4007110204F
:10155000FFF7F2FE0028C9D00024C7E70122CFE739
:101560000038004000040240E80C0020EC0C002091
:10157000060D0020B800002010E000E0034B1A78B0
:1015800002F0FB021A701878704700BFB800002004
:1015900038B51A4B1B781446DA0705462CD4184B7D
:1015A0001B781B0758BF4902012C11D11120FFF7EE
:1015B000C3FE38B94FF400712846FFF767FEB0FA52
:1015C00080F46409FFF788FE201C18BF012038BD95
:1015D0001220FFF7B1FE0028F4D14FF40071284625
:1015E000FFF754FE18B1013C05F50075F5D1002157
:1015F0000C20FFF7A1FEE5E70320E8E7B800002094
:10160000060D002070B5224B14461A780546D00707
:101610000E4639D41B78590738D41E4B1B781A074D
:1016200058BF7602012C11D131461820FFF784FEF5
:1016300040BBFE212846FFF7C1FEB0FA80F46409E2
:10164000FFF74AFE201C18BF012070BD13F0060FE3
:1016500003D021469720FFF76FFE31461920FFF790
:101660006BFE0028ECD1FC212846FFF7A7FE18B13D
:10167000013C05F50075F6D1FD210020FFF79EFE27
:101680000028DDD10124DBE70320DEE70220DCE7D0
:10169000B8000020060D00207FB56F4B1B780D466B
:1016A000D90700F1D780042800F2D280DFE800F0EB
:1016B0000309D04A9800FFF729FEB0FA80F46409C4
:1016C00006E000210920FFF737FE044628B1012477
:1016D000FFF702FE204604B070BD10216846FFF7F8
:1016E000D5FD0028F3D09DF800309DF808109DF836
:1016F00009009B09012B9DF8073009D11A0402F457
:101700007C1200EB012101320A4492022A60DFE7D9
:101710009DF806209B00920203EB911302F44062B5
:1017200013449DF805209DF80A1002F00F0202EB09
:10173000D112410001F006010A440133073A9340F7
:101740002B60C5E7454C217811F004011BD0002126
:101750008D20FFF7F1FD0028B9D1FF20FFF77AFDBA
:1017600010216846FFF792FD0028B0D03024FF20FA
:10177000013CFFF76FFD14F0FF04F8D19DF80A302B
:101780001A091023DBE70920FFF7D6FD06460028DB
:101790009DD110216846FFF779FD002897D0207869
:1017A0009DF80A309DF80B1010F002040DD05B007C
:1017B0009DF80D2003F07E0303EBD1139209013352
:1017C000013A93402B60344682E7CA0002F01802C7
:1017D000C3F3840302EB5112013302FB0333AFE77F
:1017E0001E4C227812F0060F3FF471AF69460B20B1
:1017F000FFF752FF00287FF46AAF9DF800309B0985
:1018000004D19DF80A305A067FF561AFD5E900157D
:1018100023781B0758BF49024FF0200058BF6D02C4
:10182000FFF78AFD00287FF452AF29462120FFF7F9
:1018300083FD014600287FF44AAF2620FFF77CFD98
:1018400000287FF444AF47F23050FFF74DFD34E7F6
:1018500004243DE703243DE7B8000020060D0020E6
:1018600003F0A0BF03F0A6BF01380A44914200D1A3
:10187000704711F8013B00F8013FF7E7024490423E
:1018800000D1704700F8011BF9E7024600F10B0197
:101890000020C30143EA500312F8010B50FA83F30E
:1018A0008A42D8B2F5D17047F0B50468054624B332
:1018B00023461A4613F8011B1F2929D93A29F8D1C2
:1018C0002378A3F1300009281AD9DFF850C001327B
:1018D00000235CF82370204610F8011B17F8016BF9
:1018E000A1F1610EBEF1190F9CBF2039C9B28EB1B2
:1018F000B142F1D00133092BEBD14FF0FF3008E0BA
:10190000631C9A42E1D10928F7D001322A6000E035
:101910000020F0BD8242EDD11846F7E7987000082C
:1019200008B580B1036873B11A7862B1D98882882A
:10193000914208D15878FFF711FC10F0010F14BF45
:101940000320002008BD0920FCE7F8B503690D4617
:101950000931002B34D042694FF02E0C02F10B07F5
:10196000144614F8013B202B1AD0052BA4EB0206D9
:1019700049D0092E02D181F800C00131A3F1410EF6
:10198000BEF1190F0AD8092E92F80CE034BF0826D0
:1019900010261EEA060F1CBF2033DBB20B7001318C
:1019A000BC42DED1D37A2B72D3692B60547E137E76
:1019B00043EA0423AB80D47D937D43EA0423EB8088
:1019C00000240C70AE6926B103691BB90024002302
:1019D0003355F8BDEB69002BF8D0028C4FF6FF733E
:1019E0009A42F3D0C76937F814000028EFD00021DD
:1019F000FFF700FC0028E9D0EB69013B9C42E5D2EF
:101A000030550134EFE7092E4FF0E503C6D1B2E7B8
:101A1000CA7E8B7E032843EA022301BF487D0A7DEC
:101A200042EA002243EA024318467047F8B5C56A05
:101A300000F13007044601232A4639464078FFF773
:101A4000ADFBA0B9236AA2692071EB1A934201D3BE
:101A50000020F8BDE678012EFAD9A36960781D440C
:101A60002A4601233946FFF799FB013EF3E701209F
:101A7000EFE703790BB1FFF7D9BF18467047C36A88
:101A80008B4270B506460D4612D0FFF7F2FF0446B2
:101A900060B92A46012306F130017078FFF76AFB2E
:101AA00000281CBF4FF0FF350124F562204670BDB1
:101AB0000024FBE7002310B503714FF0FF33C3622E
:101AC0000446FFF7DCFFC0B994F82F2294F82E32B9
:101AD00043EA02234AF65522934210D1D4F86630E5
:101AE000084A23F07F43934206D0D4F8820020F0C6
:101AF0007F40801A18BF012010BD0320FCE70220A0
:101B0000FAE700BF46415400F0B50023036085B0FA
:101B1000074608461546FFF7C7FE061EC0F20D81B0
:101B2000894B53F82640002C00F009813C60237853
:101B30006BB16078FFF712FBC70708D4002D00F0E7
:101B4000DB8010F0040000D00A2005B0F0BD0023B7
:101B5000F0B223706070FFF7F7FAC10700F1F1806F
:101B60000DB14207F0D400212046FFF7A3FF012862
:101B700040F0CD8004F5FB71002211F8043C03B164
:101B80000B684DF822300132042A01F11001F4D122
:101B900000265DF82650002D00F0B0802946204632
:101BA000FFF788FF002840F0AA8094F83C2094F8C2
:101BB0003B3043EA0223B3F5007F40F0AB8094F85A
:101BC000473094F8406094F84610E67051EA0321DB
:101BD00006F1FF3308BF616DA161012B00F29A800D
:101BE00094F83DE084F802E0BEF1000F00F092802E
:101BF0000EF1FF3313EA0E0F40F08C8094F8423060
:101C000094F8410040EA03200307208140F08280DD
:101C100094F8432094F8443094F83F7052EA032338
:101C200094F83E2008BF236D52EA072272D001FBD0
:101C300006FC02EB10176744BB426BD3DB1BB3FB04
:101C4000FEF3002B66D040F6F576B34294BF012632
:101C500002264FF6F57E734588BF03262A440233D9
:101C60002F44032E6361E5612262A76256D10028EA
:101C700050D1E26D62629B0003F2FF13B1EB532F70
:101C800048D34FF0FF33C4E90333032E4FF08003F2
:101C900063712AD194F8612094F8603043EA0223FA
:101CA000012B22D1691C2046FFF7E9FEE8B994F820
:101CB0002F2294F82E32607143EA02234AF655220D
:101CC000934212D1226B214B9A420ED103F1FF5362
:101CD000D4F8142203F5005320339A4201BFD4F8FC
:101CE00018322361D4F81C32E360194A2670138835
:101CF00001339BB21380E380002026E702200136E7
:101D0000042E7FF446AF032804D101201DE70328E9
:101D1000FBD008B10D2018E7054646E70028F9D0AA
:101D20006244022E62624FEA43021BBFD21803F0E4
:101D30000103134603EB52039EE70B2005E70C203B
:101D400003E7032001E700BF080D00205252614164
:101D50002C0D002070B50446FFF78BFE05460028C9
:101D600044D12378032B39D16379012B36D104F187
:101D7000300601464FF400723046FFF77FFD4AF609
:101D80005522A4F82E221A4A226302F1FF5202F5CC
:101D900000522032C4F81422226984F81822C2F3B7
:101DA000072184F81912110C120E84F81B22E26824
:101DB00084F81A12C2F3072184F81C2284F81D1239
:101DC000110C120E84F81F22E26984F81E120132EF
:101DD000E26231466078FFF7E1F965710022114651
:101DE0006078FFF7EFF9003018BF012070BD00BF29
:101DF0005252614143690239023B8B4283BF83786F
:101E0000806A01FB0300002070470129F8B50646EF
:101E10000D465DD943698B425AD90378022B29D0EC
:101E2000032B39D0012B53D101EB5104016A01EB93
:101E30005421FFF724FE10B14FF0FF30F8BD671CAE
:101E4000316AC4F30804344401EB5721304694F856
:101E50003040FFF714FE0028EED1C7F308073E44D8
:101E6000EB0796F8300044EA00204CBF0009C0F3AD
:101E70000B00E3E7016A01EB1521FFF700FE0028E4
:101E8000DAD16D0005F4FF75354495F8313095F8D9
:101E9000300040EA0320D1E7016A01EBD511FFF7DA
:101EA000EEFD0028C8D1AD0005F4FE7505F1300344
:101EB000334435449878DA785B78000440EA02606D
:101EC00095F83020104340EA032020F07040B5E739
:101ED0000120B3E7826870B50446012A0D46E1800F
:101EE00001D1022070BD036859699142F9D9BAB98C
:101EF0001978032901D1596A99B91989A942F0D9E8
:101F0000586AE2600028ECD0236800EB15103033EB
:101F100005F00F0503EB4515206165610020E1E741
:101F200011469E780A463601B5422068114602D213
:101F3000FFF760FFE5E7FFF768FF431C024607D0A5
:101F40000128CED923685B698342CAD9AD1BEBE770
:101F50000120C7E701292DE9F04105460C46164648
:101F600072D943698B426FD90378022B3CD0032B83
:101F70004CD0012B68D101EB5107016A01EB5721CD
:101F8000FFF77DFD30BB07F10108C7F308072F44B9
:101F900014F001041FBF97F8303003F00F02330133
:101FA00003F0F00314BF1343F3B287F83030296A0B
:101FB00001232B7101EB58212846FFF760FD48B93A
:101FC000C8F308032B443CB1C6F3071283F8302052
:101FD00001232B71BDE8F08193F83020C6F303266E
:101FE00022F00F023243F1E7016A01EB1421FFF7FF
:101FF00046FD0028EED1640004F4FF742C44C6F3BF
:10200000072284F8306084F83120E1E7016A01EBAF
:10201000D411FFF734FD0028DCD1A40004F4FE74D1
:1020200004F1300129442C44CB781B0603F07043A3
:1020300043EA0602C2F3072384F830204B70130CE6
:10204000120E8B70CA70C3E70220C3E7F8B50546CD
:102050000F4671B9C668E6B143699E4228BF0126A2
:1020600034466B690134A34216D8012E13D80024DC
:1020700008E0FFF7CAFE0128044635D9013003D134
:102080004FF0FF342046F8BD6B69A342FAD83E46B4
:10209000E6E70126E4E7022421462846FFF7B5FEDD
:1020A00030B1411CECD001281ED0B442D9D1DEE7BA
:1020B0006FF0704221462846FFF74CFF90B957B9A0
:1020C0002B69EC605A1CDDD0013B2B616B7943F02E
:1020D00001036B71D6E7224639462846FFF73AFFDF
:1020E0000028EDD00128CBD00124CBE72DE9F8431F
:1020F000C6880136B3B20446894613B90420BDE848
:10210000F8830369002BF9D016F00F0807D1E168B6
:1021100000680133236151B90389B342EED92368C2
:10212000E680303303EB481363610020E7E78778EC
:10213000013F17EA1617F2D1FFF767FE012805469F
:1021400001D80220DBE7421C01D10120D7E720683B
:102150004369AB4227D8B9F1000FCFD0E168FFF750
:1021600075FF0546002831D00128EAD0431CECD089
:102170002068FFF77EFC01460028E6D120684FF476
:1021800000723030FFF77AFB226829461046FFF7CD
:1021900031FE4FF00109D06220688378BB4209D834
:1021A000C36ADF1BC762E56029462068FFF722FE8D
:1021B0002061B4E780F80490FFF738FC0028C4D110
:1021C0002268D36A0133D3620137E5E7072096E737
:1021D0002DE9F74F4FF6FF784FF0FF090546A0F8BD
:1021E00020804C4629692868FFF749FC07460028EB
:1021F0005AD16E693378002B76D0E52B06D0F17A70
:1022000001F03F02090704D50F2A04D0A5F8208069
:1022100050E00F2A53D1D5F81CB0BBF1000F3CD0D1
:10222000580645D503F0BF04EB8896F80D902B8433
:10223000737B4B453ED1377827F040077B1E0D2737
:102240005F4301204FF0000A284B1AF80310721860
:1022500092F801C0725C42EA0C2268B31046FEF7A5
:10226000E7FFFE2F019025D87A1C3BF8170000925B
:10227000FEF7DEFF019981421CD1009A17460AF150
:10228000010ABAF10D0FDFD13378590603D510B129
:102290003BF8173073B9013CE4B200212846FFF740
:1022A00025FF074600289DD0384603B0BDE8F08FD3
:1022B000A342BDD0FF24F0E74245E0D0FAE724B9BD
:1022C0003046FFF7E2FA4845EED0AB69DA7AD2073A
:1022D0009CD403F10B008342E6D016F8011B13F8DF
:1022E000012B9142F7D091E70427DDE77A700008CF
:1022F0002DE9F74F0B782F2B0746884601D05C2B32
:1023000001D108F101080024BC6098F800301F2BAF
:1023100000F2C28021463846FFF7DCFD7C6103B045
:10232000BDE8F08F25F8020F4646C5E01F28A044FF
:102330000BEB46028CBF00240424002E00F0DB804F
:1023400032F8021D202902D02E2940F0D880013E0B
:10235000F3E701313BF81120202AFAD02E2AF8D0D9
:1023600009B144F003044A4632F8020D2E2801D088
:10237000013EF9D14FF0000A4FF0080955463BF8ED
:1023800011004A1CC0B1202803D02E2805D1B2422A
:1023900007D044F003041146F1E7CA4505D2B24222
:1023A0004CD1B9F10B0F41D102E0B9F10B0F38D18B
:1023B00044F003044FF00B09BB691A78E52A04BF07
:1023C00005221A70B9F1080F04BFAD00EDB205F097
:1023D0000C030C2B03D005F00302032A01D144F0B7
:1023E0000204A10709D405F00305012D08BF44F03C
:1023F0001004042B08BF44F00804BB690021DC7200
:102400003846FFF767FD10B93846FFF7E1FEBB69B4
:10241000DB7AA8B3042882D113F0040F08BF05208B
:102420007DE7B24202D044F00304C5D8AD00EDB25E
:1024300032464FF00B094FF0080AACE77F280CD961
:1024400000210192FEF7D6FE44F00204019A58B131
:10245000374B184410F8800C30B1364B13F8011F7D
:10246000002958D08142F9D144F003045F20B969B2
:1024700001F80A000AF1010A8DE745F00205F6E7C6
:102480005A073FF54CAF7969CB7ADB0635D53B6807
:102490001878FFF7BDFAB86098F800302F2B444643
:1024A00008F10108F8D05C2BF6D0D7F81CB004F185
:1024B000FF39ABF10205002619F8010F1F2806F1BC
:1024C00001087FF633AF2F283FF430AF5C283FF48C
:1024D0002DAFB8F5807F0ED00121FEF78BFE50B1F5
:1024E0007F283FF61FAF144911F8012F002A3FF44F
:1024F00019AF8242F8D1062011E705200FE7002529
:1025000020212BF816500B22B869FFF7B7F90BEB17
:10251000460929461EE7A0F141011929ADD9A0F1CC
:10252000610119299EBF203845F0010580B29EE760
:10253000FA6F00088F7000088670000870B50E46AC
:1025400000210446FFF7C6FCA8B9054621692068AA
:10255000FFF795FA78B963691B78E52B00D01BB9B2
:102560000135B54201D170BD054601212046FFF776
:10257000BDFD0028EAD0042808BF0720F3E70000CB
:102580002DE9F047D0E9065786B00C2204462946CB
:102590000DEB0200FFF768F99DF81730DB0778D5DF
:1025A0000023DFF8E481EB724FF00109E3610B22B5
:1025B00003A92846FFF758F9B9F1050F53D9B81EFA
:1025C0004B4630F8022F002A3FD1072203F00F00BC
:1025D00000F13001392988BF00F13701013A01A823
:1025E00010441B094170F1D106A911447E2001F865
:1025F000140C9A4204D0E95C202903F1010034D183
:102600002B44072A9BBF06A98918202111F8141C06
:1026100003F8011BA3EB050198BF01320729F0D98C
:1026200000212046FFF756FC064660BB2046FFF718
:10263000CFFD064638BB09F10109B9F1640FB6D1E7
:102640000726304606B0BDE8F087102102F00106EB
:1026500006EB4303DE0348BF83EA080301394FEA70
:102660005202F3D1ADE74B46AFE70346C1E7013570
:1026700037F81530002BFAD119350D23B5FBF3F5DA
:102680000CE00025F4E7042EDBD19DF81730EB7247
:10269000E7619DF817309B07F3D4012529462046B2
:1026A000FFF74CFF06460028CBD1013D4FD0E18813
:1026B0002046491BFFF70EFC06460028C1D1A06941
:1026C000DFF8C880FFF7E1F84FF6FF790746216988
:1026D0002068FFF7D4F906460028B2D16369D4F820
:1026E0001CE05F730F22E9B20D26DA724A1E7243B4
:1026F00018739876D8760646484516F808C018BF6D
:102700003EF8120003F80C0006F101069C4418BFC5
:1027100001324FEA102A002808BF48460D2E8CF8D7
:1027200001A0E9D1484502D03EF812200AB941F093
:1027300040011970236801221A7100212046FFF719
:10274000D5FC064600287FF47CAF013DBFD121694E
:102750002068FFF794F9064600287FF472AF01461F
:1027600020226069FFF78AF80B22D4E90501FFF700
:102770007BF8D4E90523DB7A03F01803137323688D
:1027800001221A715DE700BF211001007A70000874
:102790002DE9F84FFF26DFF8088105460F4634463D
:1027A0004FF0040A4FF6FF79296919B9BAF1000F01
:1027B0006AD05AE02868FFF762F98246002854D1AF
:1027C00068690378002B68D0E52B53D02E2B51D0AD
:1027D000C27A02F03F0222F02001A1F1080CDCF1E4
:1027E000000141EB0C01B94244D10F2A47D15A06EE
:1027F0003ED5EA88467B2A8403F0BF03427BB2427F
:1028000038D10278EC6902F03F02013A0D214A43C7
:102810004FF0010E4FF0000C1CF808A000EB0A016D
:1028200091F801B010F80A1041EA0B21BEF1000F37
:1028300022D0FE2A1ED824F812108E4601320CF146
:10284000010CBCF10D0FE7D10178490604D5FE2A31
:1028500010D8002124F812105C1EE4B20021284692
:10286000FFF744FC824600289ED000232B610DE038
:102870009C42C3D0FF24F1E74945E0D0FAE744B9D0
:10288000FFF703F8B04204D14FF0000A5046BDE80C
:10289000F88F4FF6FF732B84F8E74FF0040AE4E754
:1028A0007A700008012970B504460D4601D802204F
:1028B00070BD43698B42FAD963699D4205D22946AE
:1028C0002046FFF7A2FA064608B90020F0E70128E3
:1028D000EDD0411C11D0002229462046FFF73AFBDB
:1028E0000028E5D123695A1C05D00133236163799F
:1028F00043F0010363713546DEE70120D8E70000AD
:102900001FB5CDE9001004A8144640F8041DFEF7D9
:10291000CBFF011E15DB0D4B53F8210008B100223F
:102920000270019808B10022027043F8210030B112
:10293000012C08D10022694601A8FFF7E5F804B090
:1029400010BD0B20FBE70020F9E700BF080D0020B9
:102950002DE9F04F91B0914601910646002800F014
:102960009D800023036002F01E0201A906A8FFF764
:10297000CBF8002840F094804FF40070FEF770FF11
:102980008046002800F08E800D9003AB01990C93D7
:1029900006A8FFF7ADFC0B9D044610B9002D08BF3B
:1029A000062419F01C0F09F01F0767D004B3042C8C
:1029B00003D106A8FFF7E4FD044647F008070B9D86
:1029C000ECB14046FEF74EFF74B9B771069FF47143
:1029D00038782946FFF71CF83061EB69B461C6E925
:1029E0000243FB883760B380204611B0BDE8F08F0A
:1029F000EB7A13F0110F4BD119F0040F4AD13807BD
:102A000032D5FEF7F3FBC0F307230024A873EB7362
:102A1000DDF818A0EC72030C000E2B7468742C7790
:102A20006C77AC77EC779AF800002946FEF7F0FF58
:102A30000123AC76EC762C756C7581468AF80430EF
:102A400090B101465046DAF82CB0FFF72BFF044650
:102A50000028B6D1069809F1FF33C3605946FFF745
:102A60000EF804460028ACD13B07069BDB6A48BF42
:102A700047F02007C6E907350024A2E7002CA0D1C3
:102A8000EB7AD90608D419F0020FEDD0DA07EBD5AE
:102A9000072496E7082494E7042492E70924A3E78F
:102AA0000446A1E711249FE72DE9F74F9B46002339
:102AB000CBF80030044689461546FEF731FF06463E
:102AC00020BBE379002B40F09480A379D80740F134
:102AD0009280D4E90273DF1BAF4204F1240328BFC4
:102AE0002F46009397B1A268C2F30803002B71D15F
:102AF00020688378013B03EA522313F0FF0314D1CB
:102B000042B9206901280BD80226E671304603B08D
:102B1000BDE8F08F61690193FFF777F9019BF1E759
:102B2000411C01D10126F0E76061D4F800A0616981
:102B300001935046FFF75EF90028E5D0019B7D0A1E
:102B400000EB030829D09AF802209AF801005919DD
:102B5000914288BFD51A2B4642464946FEF70AFBEA
:102B60000028DFD1A3795A060BD5A069A0EB080095
:102B7000854206D94FF40072009909EB4020FEF718
:102B800073FE6D02A3682B44A360DBF800302B4476
:102B9000A944CBF800307F1BA4E7A269904517D069
:102BA000A3795B060BD5012300999AF80100FEF783
:102BB000F5FA0028B6D1A37923F04003A371206869
:102BC0000099407801234246FEF7D4FA0028A9D1A3
:102BD000C4F81880A168C1F30801C1F50075BD42B1
:102BE00028BF3D4624312A4621444846FEF73CFE94
:102BF000C8E71E468AE7072688E770B50446FEF751
:102C00008FFE002847D1A3799A0644D55B060DD5DF
:102C10002068A2694078012304F12401FEF7BEFA7E
:102C2000002837D1A37923F04003A371E16920681C
:102C3000FEF725FF064670BB256AEB7A43F02003BA
:102C4000EB72E3682B77A3891B0A6B77E389AB7779
:102C5000E37BEB772369AB76C3F307221B0C2B7561
:102C60001B0A6B75EA76FEF7C1FAC0F30723A87555
:102C7000EB75030C000E2B766876AE74EE74A379B8
:102C8000206823F02003A37101230371BDE8704085
:102C9000FFF760B8012070BD10B50446FFF7ADFF27
:102CA00020B92046FEF73CFE00B9206010BDF8B503
:102CB00004460D46FEF734FE0646002859D1E37956
:102CC000002B40F08A80E368AB4204D2A27912F074
:102CD000020F08BF1D460022A368A2604DB9D4E9C7
:102CE0000232934245D9E360A37943F02003A371F4
:102CF0003FE0206887787F02002B31D0013B6A1EBD
:102D0000B3FBF7F1B2FBF7F28A4229D37A421340C0
:102D10006169A360ED1A00294ED10025A368C3F3B1
:102D20000803002BDBD0A269AA42D8D0A3795B06A6
:102D300004F124070AD52068012339464078FEF7BC
:102D40002DFAD0B9A37923F04003A37120680123A1
:102D50002A4639464078FEF70DFA70B9A561BEE7FC
:102D6000216969B9FFF772F90128014603D10226EA
:102D7000E6713046F8BD421C01D10126F8E720611A
:102D80006161C8E7A37920689B0705D5FFF75EF965
:102D9000014620B93D4611E0FFF737F801464A1CCD
:102DA000EBD00129E3D923685B698B42DFD9A368A3
:102DB00061613B44A360ED1BBD42E3D8A3682B4493
:102DC000A360C5F30803002BA7D02068FFF712F813
:102DD0000028CCD000EB5525A0E71E46C9E770B50A
:102DE00086B005460191002837D0002201A902A82B
:102DF000FEF78AFE0446C8B9029B2B604FF40070B0
:102E0000FEF72EFD064650B303ABE861AB610199B6
:102E10002846FFF76DFA04463046FEF723FD04BB53
:102E2000696959B1CB7ADB0603D4052400232B60F2
:102E300010E0029B1878FEF7EBFDA860029BDB8890
:102E4000AB8000212846FFF745F804280446ECD063
:102E50000028EBD1204606B070BD0924FAE7112402
:102E6000F8E7042CE1D0E1E710B50446FEF758FD81
:102E700000B9206010BD2DE9FF4106468846FEF7E7
:102E80004FFD054638B9B8F1000F08D1014630466C
:102E9000FFF720F80546284604B0BDE8F0814FF45E
:102EA0000070FEF7DDFC0746F8B101ABF061B361DD
:102EB00029463046FFF76CFC042804460ED13561E4
:102EC00041463046FEF741FD00213046FFF70EF93E
:102ED0000428044604BF0024346101E00028EFD038
:102EE0003846FEF7BFFC2546D5E71125D3E700009D
:102EF00001460F22014803F037BB00BF2F1100200D
:102F0000014BD873704700BF2F110020022807D053
:102F1000032808D0012802D1044B054A1A607047E3
:102F2000024B044AFAE7014B034AF7E7BC000020D2
:102F3000EA700008EA900008EA800008004870473C
:102F40002F0D00202DE9F04772B62C4B2C4D1F6839
:102F50002C4E2D4ADFF8B4C0DFF8B480DFF8B4900F
:102F600000218E462B699CB2A1421FD113F4805FD1
:102F700020461BD096F800A0BAF1000F26D003F42B
:102F8000F851B1F5F05F35D0A4F5C051B1F5806FBF
:102F90000ED2C3F3090319F803301B025361C2F8C0
:102FA00000C02B698342FCD0C2F800E02146D9E77B
:102FB00041F6F0712140B1F5FF5F0BBF03F00F0345
:102FC000C3F30B0318F80330FB5CE6E7C3F30B0312
:102FD000FB5C1B025361C2F800C02B698342FCD02A
:102FE00041F6F4739942C2F800E0DFD10123337057
:102FF0000C46DBE762B6BDE8F08700BFBC000020EE
:10300000000C02402E0D002000100240000055551B
:103010002F1100202F0D002008B5054B0122DA7377
:10302000FFF790FF41F6FF63C31A5842584108BDAD
:103030002F110020F0B50D46ADF2CC4D0021144605
:10304000FF22064602F0AAFE01221749A6A8FFF7B2
:1030500057FC40B9012221461DA8FFF779FCF0B1C9
:103060001DA8FFF719FE01220F490020FFF748FCB9
:103070000DF2CC4DF0BD07FB04F101F500511DA888
:10308000FFF715FE6B46702201A91DA8FFF70CFD86
:103090009DF80930F4540134AC42ECD1E0E7044629
:1030A0004FF40457F8E700BFCCA1000870B50546FF
:1030B000ADF58B6D0C46164662B6012211498AA801
:1030C000FFF71EFCA8B90122214601A8FFF740FC2A
:1030D00060B94FF4045404FB06F101A8FFF7E7FDC3
:1030E0006B462246294601A8FFF7DEFC01A8FFF740
:1030F000D3FD012203490020FFF702FC72B60DF553
:103100008B6D70BDCCA100082DE9F04F8DB0144639
:1031100002F5C05B09901E464FF4045502F50053BA
:10312000B1FBF5F54FF4C05200212046079302F0A1
:1031300035FE4FF400620021584602F02FFE944BFA
:1031400094491A685846FDF75BF841F6FD72F8237A
:10315000A35441F6FF72022EA35441F6FC724FF0C5
:103160000703A35441F6FE72A35434D0032E37D084
:10317000099A07982946FFF75DFFFFF74DFF029078
:10318000002800F0018104F50453089372B600266C
:10319000CDE90566D846A146B24635463146039686
:1031A00037467D4B1B699AB297426DD1039887428F
:1031B0006AD10492DA045AD5BAF1000F14D0052D61
:1031C00012D1B7F5C05F62D3D84560D1C3F30A020C
:1031D00018F802200FE041F6FA730322E254C7E721
:1031E00041F6FA730222F9E7B7F5C05FEED2C3F3F6
:1031F0000A0219F80220694812024261684A026014
:1032000041F6F972974267D1D84565D1FF2963D855
:1032100000230360604B049A1B69934239D0059BDD
:10322000079AC3F30F23DDE90801D25CFFF73EFFE5
:1032300004F582430193002103234A1C0A92019A58
:10324000D278C9B28A422BD8019B9A7841F6F073A2
:10325000E25441F6F1739C22E254019B1A7841F644
:10326000F273E254019B5A7841F6F373E254052D50
:103270003DD9494B049A1B699342FAD0474A0399B6
:10328000002313603A460F460397174689E73246F4
:10329000B1E7424B069A1B6905929BB20693B9E7C8
:1032A000019A0B930A44127C02F0030090FBF3FC9A
:1032B0000CEB4C0CA0EB0C0CC2F38200089B000240
:1032C00000EBCC2003EB01214FF480722044FCF78B
:1032D00097FFDDE90A13B0E7049A12F4706F08D182
:1032E000052D02D8BAF1000F47D1DEB20025013515
:1032F000BFE741F6F872974226D1C6F38203013B3D
:10330000C6F3400A062B05D8DFE803F035080D04A4
:103310001114190004F58059D84602E004F58059CB
:10332000A0460625A5E704F58058A146F9E704F56F
:103330000069F1E704F5805904F50068F1E704F548
:10334000006904F58058ECE7BAF1000F8FD0052D25
:103350008DD1B7F5C05F07D2C3F30A0309F8036044
:10336000DDF808A00525C2E7D845F9D0C3F30A0364
:1033700008F80360F4E7D846D7E741F6F8729742B9
:10338000BBD0052DB3D1E4E70DB0BDE8F08F00BF91
:10339000FC010020C0000020000C02400010024090
:1033A0000000555570B50646ADF58C6D15460029E3
:1033B0007BD0B1F5002F28BF4FF40021C1F30A02E2
:1033C0000C46CB0A02B10133013BDBB22F2B1A466C
:1033D00028BF2F222F2B2B706A7045D94F2B28BF67
:1033E0004F23AB70012233498CA8FFF789FA0028DC
:1033F00056D10122314603A8FFF7AAFA00284CD182
:10340000A9782B788B4217D00131A4EBC12400F0AE
:10341000BFFD844241D801A9204600F0C1FD00282B
:103420003BD0019B6B604FF4203103A8FFF73FFCBA
:1034300098BB0546AC4219D84FF4C03103A8FFF73A
:1034400036FC50BB6B464FF480324FF0805103A8DE
:10345000FFF72AFB044600BB03A8FFF71DFC01226F
:1034600014492046FFF74CFA01201FE06B464FF449
:1034700080324FF0805103A8FFF716FB68B900981F
:10348000B0F5803F054401D2AC4206D801AA4FF006
:10349000805100F0DFFD0028CCD103A8FFF7FCFB32
:1034A000012204490020FFF72BFA00200DF58C6D56
:1034B00070BD00BFCCA100082DE9F04F85B090464B
:1034C00002AAFFF76FFF002800F085809DF80840F2
:1034D0009DF80920944238D808EBC424FFF79CFDDE
:1034E000002878D072B69DF808609DF809A09DF874
:1034F0000AB0DFF8EC90DFF8ECC0B3B2002500931F
:10350000039B0193013643462A46AE462946D9F825
:103510001070B8B281422BD1714529D13F2941D1D8
:10352000D9F81030834226D0009BC5F30F22934276
:103530003DBF92FBF6F306FB1323DBB2D3B29A45F1
:103540001ED308EBC3233F2012E09DF80A309C42B3
:1035500095BFA41AE41AE402039B95BF04F18054BA
:1035600004F1FF34A4F5006403EBC424B6E7084675
:103570008E460146CBE7DCF8103015469AB2CFE70D
:103580009B4527BFA3EB0A03DB02A3EB0B030198C8
:103590002BBF03F1805303F1FF33A3F5006300EB6E
:1035A000C323D0E717F4805FE1D0C7F30A023F05D9
:1035B0004CBFA25C9A5C1702CCF81470074FCCF891
:1035C0000070D9F810708742FBD00020CCF80000C2
:1035D00008467146CCE705B0BDE8F08F00005555B0
:1035E000000C0240001002402DE9F0438046ADF28D
:1035F000644D16461F460D4609B900271BE0B1F57C
:10360000002F0C4628BF4FF40024C4F30A03E20A3B
:1036100003B10132013AD2B21F2A134628BF1F2339
:103620001F2A3A707B700BD8224631464FF08050EB
:10363000FCF7E6FD012738460DF2644DBDE8F08346
:1036400000F0A6FCA4F580394845D6D301A9484628
:1036500000F0A6FC0028D0D0B4F5C03F019B7B60F1
:10366000204628BF4FF4C03001AA06F58031A0F5EE
:10367000803000F0EFFC07460028BED0B5F5C03F13
:1036800007D84FF4803231464FF08050FCF7B8FD38
:10369000D1E701221F498CA8FFF732F998BB01221C
:1036A000414603A8FFF754F950BB4FF4C03103A8BB
:1036B000FFF7FDFA20BBA4F5C0340546A54208D3A8
:1036C00003A8FFF7E9FA012212490020FFF718F9D1
:1036D000D7E76B464FF480324FF0805103A8FFF7D5
:1036E000E3F968B90098B0F5803F054401D2AC42D7
:1036F00006D801AA4FF0805100F0ACFC0028DDD1C3
:1037000003A8FFF7C9FA012202490020FFF7F8F8E1
:1037100073E700BFCCA100082DE9F04F85B09846B3
:1037200002AB0192FFF760FF002800F09E809DF839
:1037300008309DF80920934285BF9B1A039ADB024B
:1037400003F1FF3394BF03F1805A02EBC32AFFF762
:1037500063FC002800F0898072B60025DFF818E1CC
:10376000434C4FF08053AC462A462F462E46DEF897
:1037700010101FFA81F94E4522D1BE4223D13F2EAF
:1037800027D1DEF810304B451FD09DF80830CCF320
:103790000F22591C92FBF1F301FB13239DF8091032
:1037A000DDB2A9423BBF5B1A0399DB0203F1FF3391
:1037B0002CBF03F1805301EBC3233F270025D6E73D
:1037C00037464E46D3E73746D1E7236994469AB247
:1037D000D7E73E2E13D1DEF810304B450BD0CCF39B
:1037E0000F22019992FBF8F308FB132301EB8323CB
:1037F00005463E27BBE7236994469AB2EBE711F4EE
:10380000805FB4D011F4006F0FD0C1F30A011AF831
:1038100001108AB20902616116492160DEF81010B8
:103820004945FBD000212160A1E715B111F4806F5B
:1038300011D1C1F30A01595C8AB2090261610D49D3
:103840002160DEF810104945FBD0EBE7D4F810B04A
:1038500094461FFA8BF2DEF810B0CB45F6D0C1F3D8
:103860000901CCF30F225A5481E705B0BDE8F08F6F
:103870000010024000005555000C02402DE9F041B7
:10388000ADF58C6D05460C464FF4C83001A91646BF
:1038900000F086FB074600286CD001223D498CA829
:1038A000FFF72EF800286DD10122294603A8FFF763
:1038B0004FF8002863D14FF41C3103A8FFF7F7F944
:1038C00000285CD1DFF8D48005466B464FF4803287
:1038D0004FF0805103A8FFF7E7F800284FD1009878
:1038E000B0F5803F054401D2454548D901AA4FF0C3
:1038F000805100F0AFFB0746002840D04545E4D991
:103900004FF4B83103A8FFF7D2F9C0BB6B464FF4B0
:1039100080324FF0805103A8FFF7C6F878BB009BB8
:10392000B3F5803F2BD1331F04F5B83243F8044F71
:1039300004F580549442F9D1174906F15C024FF026
:10394000805342F8043B03F580538B42F9D1019A2E
:1039500006F19C0306F5807643F8042B9E4202F59F
:103960008052F9D103A8FFF797F9012209490020F5
:10397000FEF7C6FF38460DF58C6DBDE8F08103A853
:10398000FFF78AF9012203490020FEF7B9FF00275B
:10399000F0E700BFCCA1000800000110FF8F01007C
:1039A000B1F5802F2DE9F84F064614465BD100F0A3
:1039B000EFFAB0F5C83F56D304F5B8352A4621468C
:1039C0003046FFF75BFF00284DD0D5F83C80FFF76D
:1039D00023FB002847D005F5807C72B60021234FD9
:1039E000234CDFF890A00A460E460B4689463869FC
:1039F0001FFA80FE734513D1B34214D1C004F6D52B
:103A0000C3F30B007F2815D9A0F578621FFA82FB5B
:103A1000BBF13F0F17D855F8228018F8002018E0A6
:103A20001E467346E3E71E46E1E7D4F810B01146A0
:103A30001FFA8BF2D7F810B0F345F6D0C1F30F227E
:103A40000CF80020D3E7FF28E7D803F07F021CF82A
:103A5000022010026061C4F800A038697045FCD0F3
:103A6000C4F80090C3E7BDE8F88F00BF000C024027
:103A70000010024000005555B1F5802F2DE9F843A4
:103A8000064615463DD100F083FAB0F5C83F38D35D
:103A900005F5B834224629463046FFF7EFFE80B3DD
:103AA0006668FFF7B9FA60B372B60022164F17487E
:103AB000DFF85CE0134694463D69A9B28B421DD104
:103AC00093421BD18846E90417D5C3F30B01A1F536
:103AD00078651FFA85F9B9F13F0F98BF54F8256052
:103AE000715C09024161C0F800E039694145FCD0D0
:103AF0001946C0F800C0134600E019461A460B46A6
:103B0000DAE7BDE8F88300BF000C02400010024075
:103B100000005555272810B50AD9064800231A5C1D
:103B2000CC5CA24204D10133082BF8D1012010BD96
:103B30000020FCE7EAA000082DE9F043D469B4F5C1
:103B4000E02FADF2644D81460E4617464CD801A9D0
:103B50002046D2F8248000F023FA002844D0A64260
:103B6000354628BF254601AA3946284600F072FA94
:103B7000002839D0A6421AD201221E498CA8FEF78D
:103B8000BFFE60BB0122494603A8FEF7E1FE18BB59
:103B9000314603A8FFF78BF8F0B9A54209D303A873
:103BA000FFF77AF8012213490020FEF7A9FEC0476B
:103BB0001AE06B463246394603A8FEF775FF58B93E
:103BC0000098B042054401D2AC4205D801AA39465A
:103BD00000F040FA0028E0D103A8FFF75DF80122C9
:103BE00004490020FEF78CFE00200DF2644DBDE874
:103BF000F08300BFCCA100082DE9F04FA3B002ABC9
:103C0000019201F5C050002201F5A05C01F580642D
:103C100001F5406E01F5006501F5805801F5E056AB
:103C2000D7B2013F062F05D8DFE807F042474C4FD7
:103C300052575C00C3E900119C60DD600132082A24
:103C400003F11003ECD1FFF7E7F90090002800F032
:103C5000878072B60023444F444D0DF1080A1E467A
:103C60009E461C46194699469C463A691FFA82F8B8
:103C700044453CD174453DD1BCF1000F03D000292F
:103C80003AD00139C9B2D0041FFA82F85CD5C4F326
:103C90000B023F2A37D8019EB25C96B212026A61CB
:103CA000334A2A603A694245FCD000222A60DCE7A8
:103CB000C3E90014C3F808E0BFE7C3E9008CC3E917
:103CC0000206BBE7C3E90068F4E7C3E90011F6E7C1
:103CD000C3E90014C3E90260B0E7C3E900E5C3E942
:103CE000028CABE7C3E90001C3E902C4A6E7A6461C
:103CF0004446BAE7A646B8E702A901EB091A4FF015
:103D0000000CFF21BFE77F2A13D9920AC4F30906EA
:103D10005AF82220925D96B212026A61144A2A6011
:103D20003A694245FCD0C0E7D5F810B033461FFAD7
:103D30008BF6D7F810B0C345F6D0019802444FEA8D
:103D4000132802F8408C90E7D2B2A2F13008B8F103
:103D50000F0F8AD802F00709DDF800C0032184E7BD
:103D600023B0BDE8F08F00BF000C024000100240FD
:103D70000000555570B5ADF58B6D06460D461446E1
:103D80002D4901228AA8FEF7BBFD00284DD1012252
:103D9000314601A8FEF7DCFD002843D14FF4B831CD
:103DA00001A8FEF784FF00283CD16B464FF4104277
:103DB0004FF0805101A8FEF777FE98BB009BB3F54A
:103DC000104F2FD1231F05F5B83243F8045F05F5D6
:103DD00080559542F9D14FF080524FF01023C4E93D
:103DE000172303F58053636603F58053A36603F539
:103DF0008053E36603F58053236703F580536367BD
:103E000003F58053A36703F58053E36701A8FEF72A
:103E100043FF012208490020FEF772FD01200DF545
:103E20008B6D70BD01A8FEF737FF0122024900200B
:103E3000FEF766FD0020F2E7CCA10008B1F5003FD7
:103E40002DE9F84F134655D102F5B8352A461946E3
:103E5000FFF790FF00284DD0D5F83C80FFF7DCF845
:103E6000002847D005F1800C72B60021224F234C68
:103E7000DFF88CA00A460E460B46894638691FFAC1
:103E800080FE734513D1B34214D1C004F6D5C3F3F9
:103E90000B007F2815D9A0F57C621FFA82FBBBF1CD
:103EA0001F0F17D855F8228018F8002018E01E467A
:103EB0007346E3E71E46E1E7D4F810B011461FFA57
:103EC0008BF2D7F810B0F345F6D0C1F30F220CF8FF
:103ED0000020D3E7FF28E7D803F07F021CF8022078
:103EE00010026061C4F800A038697045FCD0C4F8C5
:103EF0000090C3E7BDE8F88F000C024000100240BC
:103F000000005555B1F5003F2DE9F843134637D170
:103F100002F5B83422461946FFF72CFF80B36668D5
:103F2000FFF77AF860B372B60022164F1648DFF832
:103F30005CE0134694463D69A9B28B421DD1934281
:103F40001BD18846E90417D5C3F30B01A1F57C65A5
:103F50001FFA85F9B9F11F0F98BF54F82560715CFD
:103F600009024161C0F800E039694145FCD01946B9
:103F7000C0F800C0134600E019461A460B46DAE7BF
:103F8000BDE8F883000C02400010024000005555C7
:103F9000024B18888002A0F580307047227AFF1FFC
:103FA000F8B502460D46FFF7F3FF90421DD3E2B18C
:103FB0002448254E0023014650F82370B742DCB256
:103FC00003D80133182BF7D1FF2402F1006000F56C
:103FD0008030B0F1006F08D3002351F823209042C5
:103FE000DEB222D30133182BF7D1002010E0844237
:103FF000FBD9FCF7F1FCFCF71FFD082812D1134F89
:10400000B44206D9FCF7F6FC0F4BC5E9003301209A
:10401000F8BD0221385DFCF721FD082802D10134EA
:10402000E4B2EDE7FCF7E6FCDFE7FF2CDDD0084A61
:10403000002351F823709742D8B2D8D80133182BF7
:10404000F7D1D2E70CA1000800000108F3A0000896
:10405000FFFF0008F8B5536814462C4A9342054602
:104060000E4650D9421E1A44294B19886FF07843E6
:1040700003EB81239A4246D8FCF7AEFCFCF7DCFC4C
:1040800008283ED1B007374617D163682B439907FC
:1040900013D125F003053544BD4203D1FCF7AAFC3A
:1040A0000120F8BD57F8041B6068FCF70DFD0828D7
:1040B00027D1636804336360EEE7F20703D46368D3
:1040C0002B43DB070DD53544BD42E7D017F8011B64
:1040D0006068FCF735FD082813D16368013363601D
:1040E000F2E725F001052E44BE42D7D037F8021B77
:1040F0006068FCF707FD082803D16368023363603A
:10410000F2E7FCF777FC0020CBE700BFFFFF0008D9
:10411000227AFF1F02780B781AB11BB94FF0FF30DB
:1041200070471BB90E310E3002F07EB90120704786
:104130000B4B82B01A680192EFF3058252B1094A23
:10414000C8230BB902B070471168C90348BF03F117
:10415000FF33F6E71A680199521AC72AFAD9F1E72C
:10416000E80C002010E000E070B500224FF480530E
:1041700090FBF3F0824201DB012070BD0B4601F1A0
:10418000800413F8015B93F87F60AE4205D19C4236
:10419000F7D1013201F58051ECE70020EDE72DE980
:1041A000F041069F00242646C91AA14215DCBE42F2
:1041B000B4BF00200120BDE8F0811CF8058012F892
:1041C00005E0F04505D101359D42F6DB04BF01361F
:1041D000E418BE42EBDA0134E7E7002500EB040CFB
:1041E000F2E700002DE9F041134B88B003AA054621
:1041F0000E4603F1100C174618685968144603C49C
:10420000083363452246F7D1186820604FF0010853
:10421000002404EB8402CDF8008005233A442946AB
:104220003046FFF7BCFF28B90134042CF1D108B0A7
:10423000BDE8F0810120FAE7CC6A00081FB5074B02
:104240001B88ADF80C300C4602230146009303AAEC
:104250002046FFF7A4FF04B010BD00BFE06A0008CD
:1042600030B5084B85B005460C461868039001230D
:10427000009303AA042329462046FFF790FF05B0C8
:1042800030BD00BFE26A00082DE9F041124B88B052
:1042900002AA05460E4603F1180C1746186859681D
:1042A000144603C4083363452246F7D100244FF077
:1042B000010804EB4402CDF8008003233A44294668
:1042C0003046FFF76CFF28B90134082CF1D108B053
:1042D000BDE8F0810120FAE7E66A0008F0B51B4A64
:1042E00089B006460D4610685168127A05AB03C3C3
:1042F00000241A70022705A904EB44020A4400971F
:10430000032331462846FFF74AFF10B1012009B0C8
:10431000F0BD0134032CEED10D4A1068516803AB97
:1043200003C303AA0097042331462846FFF737FF4B
:104330000028EBD10097042304AA31462846FFF752
:104340002EFF003018BF0120E1E700BFFE6A000821
:10435000076B00087FB5104B06460D4618689B8812
:1043600002900124ADF80C300094032302AA3146D8
:104370002846FFF714FF60B9009403230DF10B02E8
:1043800031462846FFF70BFF003018BF012004B06C
:1043900070BD2046FBE700BF0F6B0008F0B50F4A69
:1043A00087B005460E461068516803AB03C390689A
:1043B00018600024012703A904EB44020A44009773
:1043C000032329463046FFF7EAFE20B90134042CC6
:1043D000F1D107B0F0BD0120FBE700BF156B00086D
:1043E0002DE9F041144B88B002AA05460E4603F1B0
:1043F000100C174618685968144603C408336345FF
:104400002246F7D118681B79206023714FF001080C
:10441000002404EB4402CDF8008003233A442946EB
:104420003046FFF7BCFE28B90134072CF1D108B0A3
:10443000BDE8F0810120FAE7216B000808B50422ED
:104440000349083001F078FCB0FA80F0400908BD5B
:1044500086A1000808B504220349083001F06CFC6D
:10446000B0FA80F0400908BD8BA1000808B504220D
:104470000349083001F060FCB0FA80F0400908BD43
:1044800090A1000808B504220349083001F054FC4B
:10449000B0FA80F0400908BD95A1000810B52E21A2
:1044A000044602F093F818B1844201D0013010BDE7
:1044B0000048FCE7CCA1000870B5FFF7EFFF084DFE
:1044C0000646002455F8341009B9084670BD304638
:1044D00001F0AAFF01340028F4D10120F6E700BF63
:1044E00000020020034B044A9A614FF48072DA61A3
:1044F000704700BF8012002010A10120F0B5374E98
:10450000ADF5177D002407463460FCF7BBF90122A6
:1045100033490AA8FEF7F4F9054688BB39466846D0
:10452000FEF75DFC002857D13B782E4C73B1204636
:104530000123356800F80E3B2B4901F0B7FF013528
:10454000601C2A4901F0B2FF2E343560284D05F178
:10455000090733684F2B04DC29466846FEF78BFCBD
:1045600090B16846FEF780FC224B31681D482E2230
:1045700001F06AFC0124012219490020FEF7C0F96C
:1045800020460DF5177DF0BD6B7A002BE9D02B7A14
:1045900013F0060FDDD1C3F30013237023B938469F
:1045A000FFF78AFF0028D4D03946601C01F07EFF57
:1045B000A9690B7804F10E0053B11F2201F0D4FF5A
:1045C000002384F82D30336801332E343360C0E784
:1045D000394601F06BFFF6E72C46CCE7401100208E
:1045E000CCA10008A4120020C3A10008CDA100089E
:1045F0008012002015410008F0B5ADF27C4D074651
:10460000FCF740F90122A84992A8FEF779F904467F
:10461000002840F065810122394609A8FEF798F983
:10462000064680BB3846FFF739FFA04C07463546A3
:104630002959661909B90C4606E0384601F0F4FE1E
:1046400008350028F4D174680C9DBCB94FF40452AD
:10465000B5FBF2F302FB1353002B00F01981B5F503
:10466000C03F2E4628BF4FF4C03603AB32469049B8
:1046700009A8FEF719FA90B1002401E0162CEED13A
:1046800009A8FEF709FB012287490020FEF738F947
:104690000CB1884B1D6020460DF27C4DF0BD039B94
:1046A000B342E9D1A5F1100109A8FEF700FB0028EB
:1046B000E2D104AB102205A909A8FEF7F5F90028FC
:1046C000DAD1049B102BD7D1002CD9D1784903988B
:1046D000FFF720FA0446002840F0DC80B5F5006FB3
:1046E00008D173490398FFF735FE002814BF0F2443
:1046F0000124C5E7B5F5805F00F0CE80B5F5005F19
:1047000049D16D4B039E1A889B78ADF8082002248E
:104710008DF80A3031460094032302AA6448FFF75B
:104720003EFD634907463046FFF71EFD58BB63490F
:104730004FF48052A1F5805001F0FEFA00289FD07E
:104740005B493046FFF7A0FDF8B959493046FFF7FD
:1047500087FD002840F0BA8055493046FFF76EFDCE
:10476000002840F0B58052493046FFF73BFD00B1CC
:104770006FB14F493046FFF7B1FD50B9002F14BF5C
:1047800003241A247CE706247AE70D2478E7092419
:1047900076E70E2474E742F203039D427ED0A5F52E
:1047A0002053B3F5807F7BD9B5F5405F7AD0B5F55E
:1047B000804F15D1039C3E492046FFF7D5FC0028C9
:1047C0007ED13B492046FFF70BFE00287AD12046D8
:1047D0003749FFF745FD002814BF0B2404244FE799
:1047E000B5F5004F15D1039C31492046FFF7BCFCBD
:1047F000002869D12E492046FFF732FD002865D1F7
:1048000020462B49FFF71AFD002814BF0A2405246F
:1048100036E7B5F5803F1BD1039C25492046FFF7BD
:104820001FFD002852D122492046FFF707FD00282E
:104830004ED11F492046FFF7B1FD00284AD020463F
:104840001B49FFF791FC002814BF1124102417E71F
:10485000B5F5003F0CD105A8FFF708FE00283BD1B5
:1048600005A8FFF70FFE002814BF1C24002407E74B
:10487000B5F5802F7FF404AF05A8FFF7DFFD68BB17
:1048800005A8FFF7E7FD002814BF18240024F7E669
:104890001624F5E61924F3E60224F1E61A24EFE6DD
:1048A0001524EDE61324EBE6CCA10008000200205D
:1048B00004210020A0120020366B000804310020E3
:1048C0000724DDE61424DBE60824D9E60B24D7E62A
:1048D0000A24D5E61224D3E61B24D1E61724CFE61A
:1048E0000024D8E608B501211020FBF7F1FF0749A5
:1048F00007484FF47F430B6000230B718B7101223B
:10490000CB71BDE808404A71FBF7EEBF08A101205A
:104910000010024008B501210820FBF7D9FF084923
:1049200008484FF6FF730B6000230B718B71032354
:104930004B710223CB71BDE80840FBF7D5BF00BF28
:1049400008A10120000C024008B501210420FBF75A
:10495000BFFF0749074803230B6000230B718B71CE
:1049600001234B71CB71BDE80840FBF7BDBF00BF11
:1049700008A1012000080240F8B5124B1B68B3F5EE
:10498000803F1DD8FEF748FBD0B172B600220E4C16
:104990000E4E0F490F4F1546236998B290420DD124
:1049A00013F4805F024609D0C3F30A039B5D1B0228
:1049B0004B610F6023699A42FCD00D600246EBE721
:1049C000F8BD00BFA0120020000C0240042100200E
:1049D0000010024000005555F8B5124B1B68B3F5A6
:1049E000803F1DD8FEF718FBD0B172B600220E4CE6
:1049F0000E4E0F490F4F1546236998B290420DD1C4
:104A000013F4805F024609D0C3F30B039B5D1B02C6
:104A10004B610F6023699A42FCD00D600246EBE7C0
:104A2000F8BD00BFA0120020000C024004210020AD
:104A300000100240000055552DE9F74F2F4B1B6821
:104A4000B3F5803F8046CDE9001253D85A4202F0B8
:104A5000030202EB0309FEF7DFFA00284AD072B620
:104A6000274C284F2849DFF8A4A00025AE462E4643
:104A7000A4463B6998B2864222D1DA04F9D546456C
:104A800006D3009A96429CBFA0EB08040CEB0434BA
:104A9000019A22B300F4F85BBBF5805F1FD103F0ED
:104AA0007F0302064B4412D51CF803301B024B61F6
:104AB000C1F800A03B698342FCD000230B60D8E71B
:104AC0000646D6E7D1F810B075461FFA8BFED7F828
:104AD00010B08345F6D0280A0CF80300C9E7C3F3E9
:104AE0000B03E35C1B024B61C1F800A03B698342EE
:104AF000FCD0E2E703B0BDE8F08F00BFA0120020B9
:104B000004210020000C0240001002400000555516
:104B1000304B1B68B3F5803F2DE9F04757D85C4216
:104B200004F003042C4D1C442C44FEF775FA0028B5
:104B30004DD072B60020DFF8A8C0284ADFF8A4A044
:104B40002946814686468046DCF810309EB2B6453E
:104B50001FD1DF04F8D5AEF5FF57183FBFB2022FC3
:104B60009CBFA6F5FF51183906F4F85798BF05EB1E
:104B70000131B7F5885F0ED1DBB2E35C1B025361F4
:104B8000C2F800A0DCF81030B342FBD0C2F80080BD
:104B9000DAE7B646D8E7B7F5805F0CD1DCF81070DD
:104BA000B74203D0DBB2060AE654CDE717694846A0
:104BB0001FFA87F9F2E7C3F30B03CB5C1B025361C7
:104BC000C2F800A0DCF81030B342FBD0DEE7BDE84D
:104BD000F08700BFA0120020042100200010024036
:104BE000000C0240000055552DE9F84F224B1B6880
:104BF000B3F5803F3DD8FEF70FFA002839D072B6E2
:104C00001E481F4E1F4CDFF880E000231F469B46C6
:104C100019469846814600F5805A326995B28D4210
:104C200025D112F4805FAC4612D0C2F30B02825C35
:104C30001FFA82FB12026261C4F800E032699445F7
:104C4000FCD0C4F8008008E022695F461FFA82FBAE
:104C500032699445F8D0C7F30F2B23B11BF0200F16
:104C600014BF48465046A1F5FF72534253412946AE
:104C7000D3E7BDE8F88F00BFA01200200421002078
:104C8000000C02400010024000005555284B1B68E4
:104C9000B3F5803F2DE9F34147D8FEF7BDF9002871
:104CA00043D072B64FF0E0630021224C224F2348DC
:104CB000DFF88CC001930E4641F6E77E23699AB275
:104CC000914222D11546DA04F8D5A1F5FF581FFA12
:104CD00088F2172A05D87145DAB218D820328DF833
:104CE000042002AAC3F38123134413F8042CC5F350
:104CF000090303EB8223DB5D1B024361C0F800C0A4
:104D00002369AB42FCD00660D8E71146D6E7A8F18C
:104D100008081FFA88F8B8F1070F95BF183210324B
:104D20008DF805208DF80620DBE702B0BDE8F081A4
:104D3000A0120020000C02400421002000100240BC
:104D400000005555F8B51E4B1B68B3F5803F36D8AB
:104D5000FEF762F998B372B61A481B4D1B4EDFF886
:104D600070C000210A4600F580578E462B699CB220
:104D7000944212D18A4210D113F4805F10D0C3F351
:104D80000B03C35C1B027361C6F800C02B699C4215
:104D9000FCD0C6F800E014460A4611462246E5E774
:104DA00003F40463B3F5006F07D0B3F5046F08BFD5
:104DB00038462B699C42FCD0EDE70248F9E7F8BD84
:104DC000A012002004210020000C0240001002402C
:104DD000000055552DE9F843244B1B68B3F5803F7F
:104DE00041D85C4204F003041C44FEF715F9002886
:104DF00039D072B600211E481E4E1F4ADFF87C9043
:104E000088468E468C4603699DB2AE4511D12F4629
:104E1000DD04F8D51D050ED5C3F30A03F35C1B02B0
:104E20005361C2F800900369BB42FCD0C2F800C0D5
:104E3000E9E7AE46E7E7C3F309055B0525440CD473
:104E4000735D1B025361C2F800900369BB42FCD042
:104E5000ECE7136941461FFA83F80369BB42F8D0B7
:104E60000B0A7355CFE7BDE8F88300BFA0120020FE
:104E7000000C0240042100200010024000005555A3
:104E80001B4B1B68B3F5803F2DE9F0412DD8FEF791
:104E9000C3F850B372B60023164CDFF860C0164951
:104EA000DFF85CE01A4641F6F0771E46D4F8108031
:104EB0001FFA88F0904216D118F4805F054612D090
:104EC000BA4204BF013303F00F03C0F30B0202EB3D
:104ED000033212F80C2012024A61C1F800E0226984
:104EE0009542FCD00E600246E0E7BDE8F08100BFCD
:104EF000A0120020000C02400010024004210020FB
:104F0000000055554F4B1B68B3F5803F2DE9F74F17
:104F100000F295805C4204F003041C44FEF77CF828
:104F2000494D01952C44002800F0898072B6002577
:104F3000019B464E464ADFF820A100932046A94631
:104F4000A846AE46AC46336999B28E4518D1DF0407
:104F5000F9D51F054CD503F46067B7F5006F1DD177
:104F6000DFB2DB0500EB070B10D5C35D1B025361FD
:104F7000C2F800A033698B42FCD0C2F800C0E2E75F
:104F80008E46E0E71369C1461FFA83F833698B4206
:104F9000F8D04FEA19238BF80030D4E7AEF5FF576D
:104FA0001FFA87FBBBF1070F16D841F6E775AE4530
:104FB0001CD0019FA1F5FF5507EBC52500950025E5
:104FC000C3F30A03234FDB5D1B025361C2F800A049
:104FD00033698B42FCD0D0E7083FBFB2032FEFD834
:104FE000A1F5FF50083804EB0020E9E70125E7E7C9
:104FF000CDB1C3F309075B0507F580670CD5E35D09
:105000001B025361C2F800A033698B42FCD0B4E7A5
:105010001369C1461FFA83F833698B42F8D04FEA0F
:105020001923E3558FE7009FC3F30A03FB5C1B02C0
:105030005361C2F800A033698B42FCD09DE703B0F6
:10504000BDE8F08FA012002004210020000C0240D7
:105050000010024004590020000055552DE9F04F82
:10506000A64B1B68B3F5803F9BB000F29F81FDF714
:10507000D3FF002800F09A81A14B45F208221B685B
:10508000B3FBF2F39F4A013B53609F4BF02183F83F
:105090002310002307219360116072B69B4A0B9284
:1050A00002F106320C9211AD1A4616AC0FA80DA9EA
:1050B0005A5524F813201A545A540133082BF7D1A7
:1050C000904D934CAB680293012100230995DFF8C2
:1050D00054B2904D1392CDE914220091019307939D
:1050E0001A4604930693194603930593DBF8106060
:1050F000B7B2B94226D1F00440F11681B1F5825F12
:105100007FD206F0070C1AA800EB4C06C1F3C208C8
:1051100036F810EC00EB0C065FFA8EF916F834AC9A
:10512000CA4511D14FF0FF0906F8249CB8F1070FCA
:1051300065D8DFE808F0104B51646464645E0120B8
:105140000090D3E73946D1E716F82CACCA45EDD12B
:105150004FF00009E8E7BCF1030F25DC009880EA76
:10516000C00080EA601000909DF800606A48360236
:105170006E612860DBF81060BE42FBD00026BCF1F7
:10518000040F2E6006DD1AA800EB8C0656F8306C72
:10519000002EABD11AA800EB4C0C0EF1FF3ECEF363
:1051A0000A0E2CF810ECA1E7139E079800EA0608F7
:1051B0000198149E064046EA0808159E1E4046EADD
:1051C00008061AA8064416F83C6CCFE7CEF5FF6631
:1051D00007365248365CC9E7CEF5FF664F480736BA
:1051E000365C1AA800EB0C0818F8248C06EA0806AE
:1051F000BCE71AA800EB0C0616F8246CB6E70026EC
:10520000B4E7B1F5845F59D206F0070CC1F3C208C8
:10521000DBF81060BE4219D00498C0F30F265FFA85
:1052200086FEB8F1060F3FF661AF01A050F828F0F6
:105230005952000869520008735200088952000848
:10524000ED500008ED5000083F5100082E69069807
:105250000490B0B20690DBE71AA8844400260CF84C
:1052600034EC0CF8246C41E71AA884440CF82CECBC
:105270003CE71AA800EB4C0C3CF8107C07F4E06704
:105280003E432CF8106C31E71AA800EB4C073602AD
:1052900017F8108C06F4E06646EA0806BCF1040F25
:1052A00027F8106C7FF722AF1EF0100F00EB8C0C6C
:1052B0000CBF002607264CF8306C17E741F6F87053
:1052C000814219D0164841F6F97C614508BF044671
:1052D000C6F30B0C104814F80C6036026E6128609F
:1052E00014F80C60DBF810C0BC45FBD00598002713
:1052F0002F6003900596F9E6054CE9E7A01200201F
:105300000000002010E000E000ED00E000040509CE
:1053100004210020001002400000555504410020E7
:1053200004310020000C0240039800F0EC06842EAB
:105330007FF4DCAE9DF839C09DF83A609DF83BE003
:105340009DF843009DF841909DF842A008900CF113
:10535000010C01360EF1010EDBF81080B8457FF428
:10536000C5AE0998D0F80880029840451BD201329A
:10537000B2FBFCF30CFB13234B4594BF002301232A
:105380000793B2FBF6F306FB132353458CBF0223AE
:10539000002308980193B2FBFEF30EFB1323834214
:1053A0008CBF04230023CDF80880D5E71BB0BDE8EF
:1053B000F08F00BF012810B503D1BDE81040FFF702
:1053C000DBBA022803D1BDE81040FFF705BB032874
:1053D00005D1002241F6F97141F6F87006E0042883
:1053E00008D1002241F6F97141F6F670BDE810408F
:1053F000FFF722BB052805D1002241F6FB7141F6DB
:10540000F470F3E7062801D10122E3E7072801D170
:105410000122E7E7082801D10122EEE7092803D19C
:10542000BDE81040FFF7E0BB0A2807D14E4B4F4ABA
:1054300019684F48BDE81040FEF73EB80B2808D168
:1054400020234949494A09684948BDE81040FEF708
:1054500063B90C2801D16023F3E70D2803D1BDE81F
:105460001040FFF713BC0E2803D1BDE81040FFF732
:1054700069BC0F2803D1BDE81040FFF7ABBC102872
:1054800005D1002241F6EF714FF4FF50AEE711282D
:1054900001D10122F6E7122803D1BDE81040FFF741
:1054A000EFBC132803D1BDE81040FFF731BB14282F
:1054B00003D1BDE81040FFF725BD152803D1BDE895
:1054C0001040FFF7CBBD162809D12A4B26491B688F
:1054D000264A09682648BDE81040FDF715BE172882
:1054E00007D1214B214A19682148BDE81040FEF739
:1054F000C3BA182807D11C4B1C4A19681C48BDE8C0
:105500001040FEF74DBA19280DD1184A18484FF42B
:10551000C031FEF711FB20B11748BDE81040FDF780
:10552000E7BC1648F9E71A2808D1154A0E4BA2F530
:1055300000511868BDE81040FEF75EBB1B2807D17C
:10554000094B0A4A19680A48BDE81040FEF7DABC60
:105550001C2807D1044B054A19680548BDE81040CE
:10556000FEF76CBC10BD00BFA0120020042100207B
:105570008011002004A101206CA1000879A100087D
:1055800004410020F8B54FF020330360436083608E
:105590004F1E441E01F10B0617F8015F75B100F0B4
:1055A000F3F828442B46427802F00302022A08BF8F
:1055B000A5F12003B74204F8013FEDD1F8BD00008A
:1055C0002DE9F047FEF79AFF8046FDF7B7FC4FF450
:1055D0008062002104460F4FDFF83C9000F0DEFBB4
:1055E000002507F10E0AD9F80030AB4202DC404634
:1055F000BDE8F0872E266E430AEB06012046FFF732
:10560000C1FFF35D13B12378803B237001350C3467
:10561000E9E700BFA412002040110020F0B5C1B09E
:105620000021FC2201A8009100F0B8FBFEF75AFF10
:10563000FFF758F9FFF76EF9FFF786F9374A136954
:1056400013F0010F364B1FD103221A601868354E34
:10565000354D364FFDF75AFC3548FDF749FC002023
:10566000FDF74EFCFDF76EFC41F6F063984211D158
:10567000002368468DF80030FFF7A2FF0028F1D123
:105680002C48FDF735FCEDE71269920754BF022262
:105690000122DAE7A0F5F0532E205843441C335C76
:1056A00034441BB324492046FAF74EFEA8B9684695
:1056B000FAF7C6FF20B101381DF800302F2BF9D1C1
:1056C00000230DF800306846FFF77AFF10B919483B
:1056D000FDF70EFCFEF72CFDC4E73946684600F0E6
:1056E000C5FE2146684600F0C1FEECE76946284643
:1056F00000F0DCFE3946284600F0B8FE2146284678
:1057000000F0B4FE2846FEF777FFFEF711FD10B15A
:10571000FFF750FEA6E70948B3E700BF00080240C4
:1057200004A10120A412002080110020B4A10008CF
:105730009AA10008A7A10008CDA10008B6A1000801
:1057400070B50D4E0D4D761BB61006D000240134F9
:1057500055F8043B9847A642F9D1094E094D761BEE
:1057600001F0A8F9B61006D00024013455F8043B26
:105770009847A642F9D170BD50A3000850A3000875
:1057800058A3000850A30008044B054A1B685B6B34
:10579000002B08BF1346D3F8EC007047000300202D
:1057A00030070020024B0146186800F00BB800BF1C
:1057B00000030020024B0146186800F0A1BF00BFA3
:1057C000000300202DE9F04F01F10B05162D83B0E9
:1057D000064623D8102900F2B98000F029FB1025D5
:1057E00018230220C54F3B44A3F108025C68944291
:1057F00000F06681636823F003032344D4E9025177
:105800005A68E96042F001028D6030465A6000F04B
:1058100015FB0834204603B0BDE8F08F35F00705CE
:1058200000F19480A94200F2918000F001FBB5F5EF
:10583000FC7FC0F083816B0A00F08F80042B00F2A4
:105840004681AB0903F1390003F1380CC300AB4FBB
:105850003B44A3F108015C68A14206D10CE0002A98
:1058600080F21D81E468A14206D0636823F003033F
:105870005A1B0F2AF3DD60463C69DFF894C2644589
:1058800071D0636823F003035A1B0F2A00F344818D
:10589000002AC7E904CC80F22681B3F5007F80F0AE
:1058A0006981DB08591C7A6857F83180C4F8088090
:1058B0004FF0010E9B100EFA03F307EBC10E1343DA
:1058C000AEF10802E2607B6047F83140C8F80C4056
:1058D0008210012494409C424BD81C4206D120F0F7
:1058E000030064001C4200F10400FAD007EBC00979
:1058F000CE468046DEF80C309E4507D122E1002AD4
:1059000080F22981DB689E4500F01C81596821F0F6
:1059100003014A1B0F2AF2DDD3E9028E5C1945F020
:1059200001055D6042F00105C8F80CE03046CEF894
:105930000880C7E90444C4E902CC65605A50019369
:1059400000F07CFA019B03F1080463E700240C23B8
:105950002046336003B0BDE8F08F4FF40073402061
:105960004FF03F0C73E77B688210012494409C4207
:10597000B3D9BC68636823F00309A94503D3A9EB35
:1059800005030F2B7BDC5E4BDFF888A11A68DAF881
:105990000030013305EB020800F0488108F580581B
:1059A00008F10F0828F47F6828F00F0841463046B8
:1059B00000F028FDB0F1FF3F834600F0048104EBC6
:1059C0000900584500F2FD804E4A136843441360B5
:1059D00000F04D81DAF8001001311BBFABEB000085
:1059E0001B18CAF800B013601BF0070300F03481E5
:1059F000C3F10801C3F580538B440833D844C8F37E
:105A00000B08A3EB080841463046019200F0FAFC6F
:105A1000431C019A00F04681A0EB0B01414441F088
:105A200001011368C7F808B04344BC42CBF8041026
:105A3000136015D0B9F10F0F40F230816068A9F101
:105A40000C0121F0070100F0010004EB010C0843F8
:105A50004FF0050E0F296060CCE901EE00F23A81AB
:105A6000294A2A481168BC688B42016888BF1360C4
:105A700062688B4222F0030288BF0360A7E06219CC
:105A800043F0010345F0010565603046BA6053609C
:105A900000F0D4F90834204603B0BDE8F08F234469
:105AA000E1685A68A56842F00102E96030468D60FD
:105AB0005A6000F0C3F90834204603B0BDE8F08F07
:105AC000DC68A34208BF02303FF4D6AE92E6142B46
:105AD00071D9542B00F2AD802B0B03F16F0003F151
:105AE0006E0CC300B3E6234430465A6842F001020C
:105AF0005A60083400F0A2F98CE600BF9C08002030
:105B000074110020441100206C110020701100203D
